:100000000C9434000C9449000C9449000C94490061
:100010000C9449000C9449000C9449000C9449003C
:100020000C9449000C9449000C9449000C9449002C
:100030000C9449000C9449000C9449000C9449001C
:100040000C9449000C9449000C9449000C9449000C
:100050000C9449000C9449000C9449000C944900FC
:100060000C9449000C94490011241FBECFEFD8E036
:10007000DEBFCDBF11E0A0E0B1E0E2E7F1E002C0F9
:1000800005900D92A634B107D9F70E9457000C9441
:10009000B7000C940000FC019191992339F08091F4
:1000A000C00085FFFCCF9093C600F6CF0895CF9394
:1000B000DF93CDB7DEB7A0970FB6F894DEBF0FBEC3
:1000C000CDBF1092C50087E68093C40088E180937D
:1000D000C10086E08093C2002FEF83ED90E32150B2
:1000E00080409040E1F700C0000080E091E00E9475
:1000F0004B00DE011196E0E08D018091C00087FF8A
:10010000FCCF8091C6008A3031F08D3021F0EF5F56
:100110008D93EF3191F7E00FF12FF11D108282E105
:1001200091E00E944B00C8010E944B0083E391E0E4
:100130000E944B006DE171E0C8010E94AE00892B66
:1001400019F485E291E0D3CF66E371E0C8010E9423
:10015000AE00892B71F68BE391E0C9CFFB01DC0186
:100160008D91019080190110D9F3990B0895F8949D
:02017000FFCFBF
:10017200426C7565746F6F74682052656164790DA5
:100182000A00596F7520736169643A2000666F72C4
:1001920077617264004D6F76696E6720666F727761
:1001A2006172640D0A0073746F700053746F707023
:0601B200696E670D0A00F2
:00000001FF
