:100000000C9434000C9449000C9449000C94490061
:100010000C9449000C9449000C9449000C9449003C
:100020000C9449000C9449000C9449000C9449002C
:100030000C9449000C9449000C9449000C9449001C
:100040000C9449000C9449000C9449000C9449000C
:100050000C9449000C9449000C9449000C944900FC
:100060000C9449000C94490011241FBECFEFD8E036
:10007000DEBFCDBF11E0A0E0B1E0ECE4F2E002C0F1
:1000800005900D92A232B107D9F70E9457000C9447
:1000900024010C940000FC019191992339F0809186
:1000A000C00085FFFCCF9093C600F6CF0895CF9394
:1000B000DF93CDB7DEB72A970FB6F894DEBF0FBE39
:1000C000CDBF1092C50087E68093C4008091C10027
:1000D00080618093C1008091C10088608093C100DD
:1000E00086E08093C2008AB18C6F8AB984B5836040
:1000F00084BD84B5806A84BD85B5826085BD209A43
:10010000219802E08AE3C82ED12C16E928982AE02B
:100110002A95F1F700C0289A85E38A95F1F7000047
:100120002898199BFECF10928500109284000093AE
:1001300081001999FECF10928100809184009091E6
:100140008500B6010E9410017B0180E091E00E94D1
:100150004B004AE0BE016F5F7F4FC7010E94DB008A
:10016000CE0101960E944B008BE091E00E944B0073
:100170009FE0E916F104A0F481E191E00E944B00B8
:100180005C9A5D9818BC5A9A5B9817BC2FEF85EA69
:100190009EE0215080409040E1F700C00000B6CFC3
:1001A00088E191E00E944B005C9A5D9818BD5A9AD4
:1001B0005B9817BDEBCFBB274A3031F4992322F46B
:1001C000BDE2909581959F4F0C94E700BB27FB0102
:1001D0005527AA27880F991FAA1FA41710F0A41B40
:1001E00083955051B9F7A05DAA3308F0A95DA1939A
:1001F000009779F7B111B1931192CB010C940001E2
:10020000DC01FC01672F71917723E1F7329704C07D
:100210007C916D9370836291AE17BF07C8F3089508
:10022000AA1BBB1B51E107C0AA1FBB1FA617B7071C
:1002300010F0A61BB70B881F991F5A95A9F7809538
:0C0240009095BC01CD010895F894FFCF0B
:10024C0044697374616E63653A200020636D0D0A16
:10025C000053544F500D0A00464F52574152440D13
:02026C000A0086
:00000001FF
