:020000040000FA
:100000000C9434000C9449000C9449000C94490061
:100010000C9449000C9449000C9449000C9449003C
:100020000C9449000C9449000C9449000C9449002C
:100030000C9449000C9449000C9449000C9449001C
:100040000C9449000C9449000C9449000C9449000C
:100050000C9449000C9449000C9449000C944900FC
:100060000C9449000C94490011241FBECFEFD8E036
:10007000DEBFCDBF11E0A0E0B1E0ECE4F2E002C0F1
:1000800005900D92A232B107D9F70E9457000C9447
:1000900024010C940000FC019191992339F0809186
:1000A000C00085FFFCCF9093C600F6CF0895CF9394
:1000B000DF93CDB7DEB72A970FB6F894DEBF0FBE39
:1000C000CDBF1092C50087E68093C4008091C10027
:1000D00080618093C1008091C10088608093C100DD
:1000E00086E08093C2008AB18C6F8AB984B5836040
:1000F00084BD84B5806A84BD85B5826085BD209A43
:10010000219802E08AE3C82ED12C16E928982AE02B
:100110002A95F1F700C0289A85E38A95F1F7000047
:100120002898199BFECF10928500109284000093AE
:1001300081001999FECF10928100809184009091E6
:100140008500B6010E9410017B0180E091E00E94D1
:100150004B004AE0BE016F5F7F4FC7010E94DB008A
:10016000CE0101960E944B008BE091E00E944B0073
:100170009FE0E916F104A0F481E191E00E944B00B8
:100180005C9A5D9818BC5A9A5B9817BC2FEF85EA69
:100190009EE0215080409040E1F700C00000B6CFC3
:1001A00088E191E00E944B005C9A5D9818BD5A9AD4
:1001B0005B9817BDEBCFBB274A3031F4992322F46B
:1001C000BDE2909581959F4F0C94E700BB27FB0102
:1001D0005527AA27880F991FAA1FA41710F0A41B40
:1001E00083955051B9F7A05DAA3308F0A95DA1939A
:1001F000009779F7B111B1931192CB010C940001E2
:10020000DC01FC01672F71917723E1F7329704C07D
:100210007C916D9370836291AE17BF07C8F3089508
:10022000AA1BBB1B51E107C0AA1FBB1FA617B7071C
:1002300010F0A61BB70B881F991F5A95A9F7809538
:100240009095BC01CD010895F894FFCF4469737473
:10025000616E63653A200020636D0D0A0053544FB0
:0E026000500D0A00464F52574152440D0A00FD
:107E0000112484B714BE81FFF0D085E080938100F7
:107E100082E08093C00088E18093C10086E0809377
:107E2000C20080E18093C4008EE0C9D0259A86E02C
:107E300020E33CEF91E0309385002093840096BBD3
:107E4000B09BFECF1D9AA8958150A9F7CC24DD24C4
:107E500088248394B5E0AB2EA1E19A2EF3E0BF2EE7
:107E6000A2D0813461F49FD0082FAFD0023811F036
:107E7000013811F484E001C083E08DD089C08234E0
:107E800011F484E103C0853419F485E0A6D080C0E4
:107E9000853579F488D0E82EFF2485D0082F10E0AE
:107EA000102F00270E291F29000F111F8ED06801E7
:107EB0006FC0863521F484E090D080E0DECF843638
:107EC00009F040C070D06FD0082F6DD080E0C81688
:107ED00080E7D80618F4F601B7BEE895C0E0D1E017
:107EE00062D089930C17E1F7F0E0CF16F0E7DF06D8
:107EF00018F0F601B7BEE89568D007B600FCFDCFD4
:107F0000A601A0E0B1E02C9130E011968C91119780
:107F100090E0982F8827822B932B1296FA010C0160
:107F200087BEE89511244E5F5F4FF1E0A038BF0790
:107F300051F7F601A7BEE89507B600FCFDCF97BE46
:107F4000E89526C08437B1F42ED02DD0F82E2BD052
:107F50003CD0F601EF2C8F010F5F1F4F84911BD097
:107F6000EA94F801C1F70894C11CD11CFA94CF0C13
:107F7000D11C0EC0853739F428D08EE10CD085E9AC
:107F80000AD08FE07ACF813511F488E018D01DD067
:107F900080E101D065CF982F8091C00085FFFCCF94
:107FA0009093C60008958091C00087FFFCCF809118
:107FB000C00084FD01C0A8958091C6000895E0E648
:107FC000F0E098E1908380830895EDDF803219F02E
:107FD00088E0F5DFFFCF84E1DECF1F93182FE3DFCA
:107FE0001150E9F7F2DF1F91089580E0E8DFEE27F6
:047FF000FF270994CA
:027FFE00040479
:00000001FF
